{
  "_format": "hh-sol-artifact-1",
  "contractName": "BidTrackerFactory",
  "sourceName": "contracts/BidTrackerFactory.sol",
  "abi": [
    {
      "anonymous": false,
      "inputs": [
        {
          "indexed": false,
          "internalType": "string",
          "name": "name",
          "type": "string"
        },
        {
          "indexed": false,
          "internalType": "address",
          "name": "owner",
          "type": "address"
        },
        {
          "indexed": false,
          "internalType": "address",
          "name": "project",
          "type": "address"
        },
        {
          "indexed": false,
          "internalType": "uint256[]",
          "name": "bountySpeedTargets",
          "type": "uint256[]"
        },
        {
          "indexed": false,
          "internalType": "uint256[]",
          "name": "targeBounties",
          "type": "uint256[]"
        },
        {
          "indexed": false,
          "internalType": "uint256",
          "name": "wifiSpeedTarget",
          "type": "uint256"
        },
        {
          "indexed": false,
          "internalType": "int96",
          "name": "streamRate",
          "type": "int96"
        },
        {
          "indexed": false,
          "internalType": "uint256",
          "name": "createdAt",
          "type": "uint256"
        }
      ],
      "name": "NewProject",
      "type": "event"
    },
    {
      "inputs": [
        {
          "internalType": "address",
          "name": "_owner",
          "type": "address"
        },
        {
          "internalType": "address",
          "name": "_ConditionalTokens",
          "type": "address"
        },
        {
          "internalType": "address",
          "name": "_Superfluid",
          "type": "address"
        },
        {
          "internalType": "address",
          "name": "_CFA",
          "type": "address"
        },
        {
          "internalType": "address",
          "name": "_ERC20",
          "type": "address"
        },
        {
          "internalType": "string",
          "name": "_name",
          "type": "string"
        },
        {
          "internalType": "uint256[]",
          "name": "_bountySpeedTargets",
          "type": "uint256[]"
        },
        {
          "internalType": "uint256[]",
          "name": "_bounties",
          "type": "uint256[]"
        },
        {
          "internalType": "uint256",
          "name": "_wifiSpeedTarget",
          "type": "uint256"
        },
        {
          "internalType": "int96",
          "name": "_streamRate",
          "type": "int96"
        }
      ],
      "name": "deployNewProject",
      "outputs": [
        {
          "internalType": "address",
          "name": "",
          "type": "address"
        }
      ],
      "stateMutability": "nonpayable",
      "type": "function"
    },
    {
      "inputs": [
        {
          "internalType": "string",
          "name": "_name",
          "type": "string"
        }
      ],
      "name": "getProject",
      "outputs": [
        {
          "internalType": "address",
          "name": "projectAddress",
          "type": "address"
        },
        {
          "internalType": "string",
          "name": "name",
          "type": "string"
        }
      ],
      "stateMutability": "view",
      "type": "function"
    },
    {
      "inputs": [
        {
          "internalType": "string",
          "name": "",
          "type": "string"
        }
      ],
      "name": "nameToProjectIndex",
      "outputs": [
        {
          "internalType": "uint256",
          "name": "",
          "type": "uint256"
        }
      ],
      "stateMutability": "view",
      "type": "function"
    },
    {
      "inputs": [],
      "name": "nonce",
      "outputs": [
        {
          "internalType": "uint256",
          "name": "_value",
          "type": "uint256"
        }
      ],
      "stateMutability": "view",
      "type": "function"
    },
    {
      "inputs": [
        {
          "internalType": "uint256",
          "name": "",
          "type": "uint256"
        }
      ],
      "name": "projects",
      "outputs": [
        {
          "internalType": "contract BidTracker",
          "name": "",
          "type": "address"
        }
      ],
      "stateMutability": "view",
      "type": "function"
    }
  ],
  "bytecode": "0x608060405234801561001057600080fd5b50614158806100206000396000f3fe60806040523480156200001157600080fd5b50600436106200005e5760003560e01c8063107046bd14620000635780634fa691e214620000be578063affed0e01462000218578063d4ead1ce1462000238578063fafccbcc1462000509575b600080fd5b62000092600480360360208110156200007b57600080fd5b8101908080359060200190929190505050620005de565b604051808273ffffffffffffffffffffffffffffffffffffffff16815260200191505060405180910390f35b6200017d60048036036020811015620000d657600080fd5b8101908080359060200190640100000000811115620000f457600080fd5b8201836020820111156200010757600080fd5b803590602001918460018302840111640100000000831117156200012a57600080fd5b91908080601f016020809104026020016040519081016040528093929190818152602001838380828437600081840152601f19601f8201169050808301925050505050505091929192905050506200061b565b604051808373ffffffffffffffffffffffffffffffffffffffff16815260200180602001828103825283818151815260200191508051906020019080838360005b83811015620001db578082015181840152602081019050620001be565b50505050905090810190601f168015620002095780820380516001836020036101000a031916815260200191505b50935050505060405180910390f35b620002226200081c565b6040518082815260200191505060405180910390f35b620004dd60048036036101408110156200025157600080fd5b81019080803573ffffffffffffffffffffffffffffffffffffffff169060200190929190803573ffffffffffffffffffffffffffffffffffffffff169060200190929190803573ffffffffffffffffffffffffffffffffffffffff169060200190929190803573ffffffffffffffffffffffffffffffffffffffff169060200190929190803573ffffffffffffffffffffffffffffffffffffffff169060200190929190803590602001906401000000008111156200030f57600080fd5b8201836020820111156200032257600080fd5b803590602001918460018302840111640100000000831117156200034557600080fd5b91908080601f016020809104026020016040519081016040528093929190818152602001838380828437600081840152601f19601f82011690508083019250505050505050919291929080359060200190640100000000811115620003a957600080fd5b820183602082011115620003bc57600080fd5b80359060200191846020830284011164010000000083111715620003df57600080fd5b919080806020026020016040519081016040528093929190818152602001838360200280828437600081840152601f19601f820116905080830192505050505050509192919290803590602001906401000000008111156200044057600080fd5b8201836020820111156200045357600080fd5b803590602001918460208302840111640100000000831117156200047657600080fd5b919080806020026020016040519081016040528093929190818152602001838360200280828437600081840152601f19601f820116905080830192505050505050509192919290803590602001909291908035600b0b906020019092919050505062000828565b604051808273ffffffffffffffffffffffffffffffffffffffff16815260200191505060405180910390f35b620005c8600480360360208110156200052157600080fd5b81019080803590602001906401000000008111156200053f57600080fd5b8201836020820111156200055257600080fd5b803590602001918460018302840111640100000000831117156200057557600080fd5b91908080601f016020809104026020016040519081016040528093929190818152602001838380828437600081840152601f19601f82011690508083019250505050505050919291929050505062000d75565b6040518082815260200191505060405180910390f35b60028181548110620005ec57fe5b906000526020600020016000915054906101000a900473ffffffffffffffffffffffffffffffffffffffff1681565b6000606060006002600180866040518082805190602001908083835b602083106200065c578051825260208201915060208101905060208303925062000637565b6001836020036101000a03801982511681845116808217855250505050505090500191505090815260200160405180910390205403815481106200069c57fe5b9060005260206000200160009054906101000a900473ffffffffffffffffffffffffffffffffffffffff169050808173ffffffffffffffffffffffffffffffffffffffff16639a33e3006040518163ffffffff1660e01b815260040160006040518083038186803b1580156200071157600080fd5b505afa15801562000726573d6000803e3d6000fd5b505050506040513d6000823e3d601f19601f8201168201806040525060208110156200075157600080fd5b81019080805160405193929190846401000000008211156200077257600080fd5b838201915060208201858111156200078957600080fd5b8251866001820283011164010000000082111715620007a757600080fd5b8083526020830192505050908051906020019080838360005b83811015620007dd578082015181840152602081019050620007c0565b50505050905090810190601f1680156200080b5780820380516001836020036101000a031916815260200191505b506040525050509250925050915091565b60008060000154905081565b6000806001876040518082805190602001908083835b602083106200086357805182526020820191506020810190506020830392506200083e565b6001836020036101000a038019825116818451168082178552505050505050905001915050908152602001604051809103902054146200090b576040517f08c379a000000000000000000000000000000000000000000000000000000000815260040180806020018281038252601b8152602001807f4e616d652068617320616c7265616479206265656e2074616b656e000000000081525060200191505060405180910390fd5b60008b8b8b8b8b8b8b8b8b8b604051620009259062000dc7565b808b73ffffffffffffffffffffffffffffffffffffffff1681526020018a73ffffffffffffffffffffffffffffffffffffffff1681526020018973ffffffffffffffffffffffffffffffffffffffff1681526020018873ffffffffffffffffffffffffffffffffffffffff1681526020018773ffffffffffffffffffffffffffffffffffffffff16815260200180602001806020018060200186815260200185600b0b8152602001848103845289818151815260200191508051906020019080838360005b8381101562000a07578082015181840152602081019050620009ea565b50505050905090810190601f16801562000a355780820380516001836020036101000a031916815260200191505b50848103835288818151815260200191508051906020019060200280838360005b8381101562000a7357808201518184015260208101905062000a56565b50505050905001848103825287818151815260200191508051906020019060200280838360005b8381101562000ab757808201518184015260208101905062000a9a565b505050509050019d5050505050505050505050505050604051809103906000f08015801562000aea573d6000803e3d6000fd5b5090506002819080600181540180825580915050600190039060005260206000200160009091909190916101000a81548173ffffffffffffffffffffffffffffffffffffffff021916908373ffffffffffffffffffffffffffffffffffffffff16021790555062000b5c600062000da3565b62000b68600062000db9565b6001886040518082805190602001908083835b6020831062000ba0578051825260208201915060208101905060208303925062000b7b565b6001836020036101000a0380198251168184511680821785525050505050509050019150509081526020016040518091039020819055507f5368bdf8b581204a3692471c14ca13148260768b1b894599eb9b97cfa5f90b2d878d83898989894260405180806020018973ffffffffffffffffffffffffffffffffffffffff1681526020018873ffffffffffffffffffffffffffffffffffffffff168152602001806020018060200187815260200186600b0b815260200185815260200184810384528c818151815260200191508051906020019080838360005b8381101562000c9757808201518184015260208101905062000c7a565b50505050905090810190601f16801562000cc55780820380516001836020036101000a031916815260200191505b50848103835289818151815260200191508051906020019060200280838360005b8381101562000d0357808201518184015260208101905062000ce6565b50505050905001848103825288818151815260200191508051906020019060200280838360005b8381101562000d4757808201518184015260208101905062000d2a565b505050509050019b50505050505050505050505060405180910390a1809150509a9950505050505050505050565b6001818051602081018201805184825260208301602085012081835280955050505050506000915090505481565b6001816000016000828254019250508190555050565b600081600001549050919050565b61334d8062000dd68339019056fe608060405260008060006101000a81548160ff02191690831515021790555060008060016101000a81548160ff0219169083151502179055506509184e72a0006009553480156200004f57600080fd5b506040516200334d3803806200334d83398181016040526101408110156200007657600080fd5b81019080805190602001909291908051906020019092919080519060200190929190805190602001909291908051906020019092919080516040519392919084640100000000821115620000c957600080fd5b83820191506020820185811115620000e057600080fd5b8251866001820283011164010000000082111715620000fe57600080fd5b8083526020830192505050908051906020019080838360005b838110156200013457808201518184015260208101905062000117565b50505050905090810190601f168015620001625780820380516001836020036101000a031916815260200191505b50604052602001805160405193929190846401000000008211156200018657600080fd5b838201915060208201858111156200019d57600080fd5b8251866020820283011164010000000082111715620001bb57600080fd5b8083526020830192505050908051906020019060200280838360005b83811015620001f4578082015181840152602081019050620001d7565b50505050905001604052602001805160405193929190846401000000008211156200021e57600080fd5b838201915060208201858111156200023557600080fd5b82518660208202830111640100000000821117156200025357600080fd5b8083526020830192505050908051906020019060200280838360005b838110156200028c5780820151818401526020810190506200026f565b50505050905001604052602001805190602001909291908051906020019092919050505089600260006101000a81548173ffffffffffffffffffffffffffffffffffffffff021916908373ffffffffffffffffffffffffffffffffffffffff160217905550846001908051906020019062000309929190620004cc565b5083600690805190602001906200032292919062000553565b5082600790805190602001906200033b92919062000553565b508160088190555080600a60006101000a8154816bffffffffffffffffffffffff0219169083600b0b6bffffffffffffffffffffffff16021790555086601260006101000a81548173ffffffffffffffffffffffffffffffffffffffff021916908373ffffffffffffffffffffffffffffffffffffffff16021790555087601360006101000a81548173ffffffffffffffffffffffffffffffffffffffff021916908373ffffffffffffffffffffffffffffffffffffffff16021790555088600f60006101000a81548173ffffffffffffffffffffffffffffffffffffffff021916908373ffffffffffffffffffffffffffffffffffffffff16021790555085601060006101000a81548173ffffffffffffffffffffffffffffffffffffffff021916908373ffffffffffffffffffffffffffffffffffffffff16021790555088601160006101000a81548173ffffffffffffffffffffffffffffffffffffffff021916908373ffffffffffffffffffffffffffffffffffffffff16021790555050505050505050505050620005c4565b828054600181600116156101000203166002900490600052602060002090601f016020900481019282601f106200050f57805160ff191683800117855562000540565b8280016001018555821562000540579182015b828111156200053f57825182559160200191906001019062000522565b5b5090506200054f9190620005a5565b5090565b82805482825590600052602060002090810192821562000592579160200282015b828111156200059157825182559160200191906001019062000574565b5b509050620005a19190620005a5565b5090565b5b80821115620005c0576000816000905550600101620005a6565b5090565b612d7980620005d46000396000f3fe6080604052600436106101405760003560e01c80636dd1654b116100b6578063a5863ec31161006f578063a5863ec3146107de578063a89ae4ba14610809578063ac5c5e0d1461084a578063c654017214610877578063d70d75051461093b578063ec3d8485146109ac57610140565b80636dd1654b146105e7578063738198b41461064c5780637a11873b1461069e5780638890ed09146106cc5780638da5cb5b1461070d5780639a33e3001461074e57610140565b8063220e5ab311610108578063220e5ab31461046657806327eb6e3d146104915780632c0823cb146104bf5780634325afcc146104ec5780635cbdf0a8146105275780636d54d5851461057657610140565b8063029bf52f1461014557806309b7d8da146102375780630b2dc46c146102c75780630ea36180146103c65780631cb44dfc14610415575b600080fd5b34801561015157600080fd5b506102356004803603608081101561016857600080fd5b810190808035906020019064010000000081111561018557600080fd5b82018360208201111561019757600080fd5b803590602001918460208302840111640100000000831117156101b957600080fd5b9091929391929390803590602001906401000000008111156101da57600080fd5b8201836020820111156101ec57600080fd5b8035906020019184602083028401116401000000008311171561020e57600080fd5b9091929391929390803590602001909291908035600b0b9060200190929190505050610a71565b005b34801561024357600080fd5b506102c56004803603604081101561025a57600080fd5b81019080803590602001909291908035906020019064010000000081111561028157600080fd5b82018360208201111561029357600080fd5b803590602001918460208302840111640100000000831117156102b557600080fd5b9091929391929390505050610e34565b005b3480156102d357600080fd5b50610316600480360360208110156102ea57600080fd5b81019080803573ffffffffffffffffffffffffffffffffffffffff169060200190929190505050610fc0565b60405180806020018060200185815260200184600b0b8152602001838103835287818151815260200191508051906020019060200280838360005b8381101561036c578082015181840152602081019050610351565b50505050905001838103825286818151815260200191508051906020019060200280838360005b838110156103ae578082015181840152602081019050610393565b50505050905001965050505050505060405180910390f35b3480156103d257600080fd5b506103ff600480360360208110156103e957600080fd5b8101908080359060200190929190505050611246565b6040518082815260200191505060405180910390f35b34801561042157600080fd5b506104646004803603602081101561043857600080fd5b81019080803573ffffffffffffffffffffffffffffffffffffffff169060200190929190505050611267565b005b34801561047257600080fd5b5061047b611388565b6040518082815260200191505060405180910390f35b34801561049d57600080fd5b506104a661138e565b6040518082600b0b815260200191505060405180910390f35b3480156104cb57600080fd5b506104d46113a1565b60405180821515815260200191505060405180910390f35b3480156104f857600080fd5b506105256004803603602081101561050f57600080fd5b81019080803590602001909291905050506113b4565b005b34801561053357600080fd5b506105606004803603602081101561054a57600080fd5b81019080803590602001909291905050506114c6565b6040518082815260200191505060405180910390f35b34801561058257600080fd5b506105e56004803603604081101561059957600080fd5b81019080803573ffffffffffffffffffffffffffffffffffffffff169060200190929190803573ffffffffffffffffffffffffffffffffffffffff1690602001909291905050506114e7565b005b3480156105f357600080fd5b506106206004803603602081101561060a57600080fd5b8101908080359060200190929190505050611890565b604051808273ffffffffffffffffffffffffffffffffffffffff16815260200191505060405180910390f35b34801561065857600080fd5b506106856004803603602081101561066f57600080fd5b81019080803590602001909291905050506118cc565b6040518082600b0b815260200191505060405180910390f35b6106ca600480360360208110156106b457600080fd5b81019080803590602001909291905050506118d6565b005b3480156106d857600080fd5b506106e1611b8c565b604051808273ffffffffffffffffffffffffffffffffffffffff16815260200191505060405180910390f35b34801561071957600080fd5b50610722611bb2565b604051808273ffffffffffffffffffffffffffffffffffffffff16815260200191505060405180910390f35b34801561075a57600080fd5b50610763611bd8565b6040518080602001828103825283818151815260200191508051906020019080838360005b838110156107a3578082015181840152602081019050610788565b50505050905090810190601f1680156107d05780820380516001836020036101000a031916815260200191505b509250505060405180910390f35b3480156107ea57600080fd5b506107f3611c76565b6040518082815260200191505060405180910390f35b34801561081557600080fd5b5061081e611c7c565b604051808273ffffffffffffffffffffffffffffffffffffffff16815260200191505060405180910390f35b34801561085657600080fd5b5061085f611ca2565b60405180821515815260200191505060405180910390f35b34801561088357600080fd5b50610939600480360360a081101561089a57600080fd5b81019080803573ffffffffffffffffffffffffffffffffffffffff1690602001909291908035906020019092919080359060200190929190803590602001906401000000008111156108eb57600080fd5b8201836020820111156108fd57600080fd5b8035906020019184602083028401116401000000008311171561091f57600080fd5b909192939192939080359060200190929190505050611cb3565b005b34801561094757600080fd5b506109aa6004803603604081101561095e57600080fd5b81019080803573ffffffffffffffffffffffffffffffffffffffff169060200190929190803573ffffffffffffffffffffffffffffffffffffffff169060200190929190505050611dad565b005b3480156109b857600080fd5b506109c1612248565b60405180806020018060200185815260200184600b0b8152602001838103835287818151815260200191508051906020019060200280838360005b83811015610a175780820151818401526020810190506109fc565b50505050905001838103825286818151815260200191508051906020019060200280838360005b83811015610a59578082015181840152602081019050610a3e565b50505050905001965050505050505060405180910390f35b6000151560008054906101000a900460ff16151514610adb576040517f08c379a000000000000000000000000000000000000000000000000000000000815260040180806020018281038252602a815260200180612ca3602a913960400191505060405180910390fd5b6000600e60003373ffffffffffffffffffffffffffffffffffffffff1673ffffffffffffffffffffffffffffffffffffffff16815260200190815260200160002060009054906101000a9004600b0b600b0b14610ba0576040517f08c379a000000000000000000000000000000000000000000000000000000000815260040180806020018281038252601d8152602001807f42696464657220616c7265616479207375626d6974746564206f6e636500000081525060200191505060405180910390fd5b8585600b60003373ffffffffffffffffffffffffffffffffffffffff1673ffffffffffffffffffffffffffffffffffffffff1681526020019081526020016000209190610bee929190612c14565b508383600c60003373ffffffffffffffffffffffffffffffffffffffff1673ffffffffffffffffffffffffffffffffffffffff1681526020019081526020016000209190610c3d929190612c14565b5081600d60003373ffffffffffffffffffffffffffffffffffffffff1673ffffffffffffffffffffffffffffffffffffffff1681526020019081526020016000208190555080600e60003373ffffffffffffffffffffffffffffffffffffffff1673ffffffffffffffffffffffffffffffffffffffff16815260200190815260200160002060006101000a8154816bffffffffffffffffffffffff0219169083600b0b6bffffffffffffffffffffffff1602179055506005339080600181540180825580915050600190039060005260206000200160009091909190916101000a81548173ffffffffffffffffffffffffffffffffffffffff021916908373ffffffffffffffffffffffffffffffffffffffff1602179055507f07e6266c9b7404c03630f2c6f6a1b6ea77503d4fd03053c6575a6fc01173388c3382848989898942604051808973ffffffffffffffffffffffffffffffffffffffff16815260200188600b0b815260200187815260200180602001806020018481526020018381038352888882818152602001925060200280828437600081840152601f19601f8201169050808301925050508381038252868682818152602001925060200280828437600081840152601f19601f8201169050808301925050509a505050505050505050505060405180910390a1505050505050565b600260009054906101000a900473ffffffffffffffffffffffffffffffffffffffff1673ffffffffffffffffffffffffffffffffffffffff163373ffffffffffffffffffffffffffffffffffffffff1614610ef7576040517f08c379a00000000000000000000000000000000000000000000000000000000081526004018080602001828103825260098152602001807f6e6f74206f776e6572000000000000000000000000000000000000000000000081525060200191505060405180910390fd5b601160009054906101000a900473ffffffffffffffffffffffffffffffffffffffff1673ffffffffffffffffffffffffffffffffffffffff1663c49298ac8484846040518463ffffffff1660e01b815260040180848152602001806020018281038252848482818152602001925060200280828437600081840152601f19601f820116905080830192505050945050505050600060405180830381600087803b158015610fa357600080fd5b505af1158015610fb7573d6000803e3d6000fd5b50505050505050565b606080600080600260009054906101000a900473ffffffffffffffffffffffffffffffffffffffff1673ffffffffffffffffffffffffffffffffffffffff163373ffffffffffffffffffffffffffffffffffffffff16148061103357506001151560008054906101000a900460ff161515145b611088576040517f08c379a000000000000000000000000000000000000000000000000000000000815260040180806020018281038252603d815260200180612d07603d913960400191505060405180910390fd5b600b60008673ffffffffffffffffffffffffffffffffffffffff1673ffffffffffffffffffffffffffffffffffffffff168152602001908152602001600020600c60008773ffffffffffffffffffffffffffffffffffffffff1673ffffffffffffffffffffffffffffffffffffffff168152602001908152602001600020600d60008873ffffffffffffffffffffffffffffffffffffffff1673ffffffffffffffffffffffffffffffffffffffff16815260200190815260200160002054600e60008973ffffffffffffffffffffffffffffffffffffffff1673ffffffffffffffffffffffffffffffffffffffff16815260200190815260200160002060009054906101000a9004600b0b838054806020026020016040519081016040528092919081815260200182805480156111de57602002820191906000526020600020905b8154815260200190600101908083116111ca575b505050505093508280548060200260200160405190810160405280929190818152602001828054801561123057602002820191906000526020600020905b81548152602001906001019080831161121c575b5050505050925093509350935093509193509193565b6007818154811061125357fe5b906000526020600020016000915090505481565b600260009054906101000a900473ffffffffffffffffffffffffffffffffffffffff1673ffffffffffffffffffffffffffffffffffffffff163373ffffffffffffffffffffffffffffffffffffffff161461132a576040517f08c379a000000000000000000000000000000000000000000000000000000000815260040180806020018281038252601c8152602001807f4f6e6c79206f776e65722063616e20757064617465206f7261636c650000000081525060200191505060405180910390fd5b80600360006101000a81548173ffffffffffffffffffffffffffffffffffffffff021916908373ffffffffffffffffffffffffffffffffffffffff16021790555060008060016101000a81548160ff02191690831515021790555050565b60095481565b600a60009054906101000a9004600b0b81565b600060019054906101000a900460ff1681565b601060009054906101000a900473ffffffffffffffffffffffffffffffffffffffff1673ffffffffffffffffffffffffffffffffffffffff166323b872dd600260009054906101000a900473ffffffffffffffffffffffffffffffffffffffff1630846040518463ffffffff1660e01b8152600401808473ffffffffffffffffffffffffffffffffffffffff1681526020018373ffffffffffffffffffffffffffffffffffffffff1681526020018281526020019350505050602060405180830381600087803b15801561148757600080fd5b505af115801561149b573d6000803e3d6000fd5b505050506040513d60208110156114b157600080fd5b81019080805190602001909291905050505050565b600681815481106114d357fe5b906000526020600020016000915090505481565b600260009054906101000a900473ffffffffffffffffffffffffffffffffffffffff1673ffffffffffffffffffffffffffffffffffffffff163373ffffffffffffffffffffffffffffffffffffffff161461158d576040517f08c379a0000000000000000000000000000000000000000000000000000000008152600401808060200182810382526024815260200180612c7f6024913960400191505060405180910390fd5b6000151560008054906101000a900460ff16151514611614576040517f08c379a000000000000000000000000000000000000000000000000000000000815260040180806020018281038252601f8152602001807f41206269642068617320616c7265616479206265656e20617070726f7665640081525060200191505060405180910390fd5b61161c612317565b6116368183600a60009054906101000a9004600b0b61242a565b7fc7d9a34526784b297f8c8241517af19be6bbea9b04db2c398f4dda348dccfcb782600d60008573ffffffffffffffffffffffffffffffffffffffff1673ffffffffffffffffffffffffffffffffffffffff16815260200190815260200160002054600e60008673ffffffffffffffffffffffffffffffffffffffff1673ffffffffffffffffffffffffffffffffffffffff16815260200190815260200160002060009054906101000a9004600b0b600b60008773ffffffffffffffffffffffffffffffffffffffff1673ffffffffffffffffffffffffffffffffffffffff168152602001908152602001600020600c60008873ffffffffffffffffffffffffffffffffffffffff1673ffffffffffffffffffffffffffffffffffffffff16815260200190815260200160002042604051808773ffffffffffffffffffffffffffffffffffffffff16815260200186815260200185600b0b8152602001806020018060200184815260200183810383528681815481526020019150805480156117de57602002820191906000526020600020905b8154815260200190600101908083116117ca575b5050838103825285818154815260200191508054801561181d57602002820191906000526020600020905b815481526020019060010190808311611809575b50509850505050505050505060405180910390a160016000806101000a81548160ff02191690831515021790555081600460006101000a81548173ffffffffffffffffffffffffffffffffffffffff021916908373ffffffffffffffffffffffffffffffffffffffff1602179055505050565b6005818154811061189d57fe5b906000526020600020016000915054906101000a900473ffffffffffffffffffffffffffffffffffffffff1681565b6000819050919050565b600460009054906101000a900473ffffffffffffffffffffffffffffffffffffffff1673ffffffffffffffffffffffffffffffffffffffff163373ffffffffffffffffffffffffffffffffffffffff16148061197f5750600260009054906101000a900473ffffffffffffffffffffffffffffffffffffffff1673ffffffffffffffffffffffffffffffffffffffff163373ffffffffffffffffffffffffffffffffffffffff16145b6119d4576040517f08c379a000000000000000000000000000000000000000000000000000000000815260040180806020018281038252603a815260200180612ccd603a913960400191505060405180910390fd5b6000600f60009054906101000a900473ffffffffffffffffffffffffffffffffffffffff1673ffffffffffffffffffffffffffffffffffffffff1662fdd58e30846040518363ffffffff1660e01b8152600401808373ffffffffffffffffffffffffffffffffffffffff1681526020018281526020019250505060206040518083038186803b158015611a6657600080fd5b505afa158015611a7a573d6000803e3d6000fd5b505050506040513d6020811015611a9057600080fd5b81019080805190602001909291905050509050600f60009054906101000a900473ffffffffffffffffffffffffffffffffffffffff1673ffffffffffffffffffffffffffffffffffffffff1663f242432a303385856040518563ffffffff1660e01b8152600401808573ffffffffffffffffffffffffffffffffffffffff1681526020018473ffffffffffffffffffffffffffffffffffffffff1681526020018381526020018281526020018060200182810382526000815260200160200195505050505050600060405180830381600087803b158015611b7057600080fd5b505af1158015611b84573d6000803e3d6000fd5b505050505050565b600460009054906101000a900473ffffffffffffffffffffffffffffffffffffffff1681565b600260009054906101000a900473ffffffffffffffffffffffffffffffffffffffff1681565b60018054600181600116156101000203166002900480601f016020809104026020016040519081016040528092919081815260200182805460018160011615610100020316600290048015611c6e5780601f10611c4357610100808354040283529160200191611c6e565b820191906000526020600020905b815481529060010190602001808311611c5157829003601f168201915b505050505081565b60085481565b600360009054906101000a900473ffffffffffffffffffffffffffffffffffffffff1681565b60008054906101000a900460ff1681565b601160009054906101000a900473ffffffffffffffffffffffffffffffffffffffff1673ffffffffffffffffffffffffffffffffffffffff166372ce42758787878787876040518763ffffffff1660e01b8152600401808773ffffffffffffffffffffffffffffffffffffffff168152602001868152602001858152602001806020018381526020018281038252858582818152602001925060200280828437600081840152601f19601f820116905080830192505050975050505050505050600060405180830381600087803b158015611d8d57600080fd5b505af1158015611da1573d6000803e3d6000fd5b50505050505050505050565b600260009054906101000a900473ffffffffffffffffffffffffffffffffffffffff1673ffffffffffffffffffffffffffffffffffffffff163373ffffffffffffffffffffffffffffffffffffffff1614611e70576040517f08c379a000000000000000000000000000000000000000000000000000000000815260040180806020018281038252601a8152602001807f4f6e6c79206f776e65722063616e2063616e63656c20666c6f7700000000000081525060200191505060405180910390fd5b601360009054906101000a900473ffffffffffffffffffffffffffffffffffffffff1673ffffffffffffffffffffffffffffffffffffffff166339255d5b601260009054906101000a900473ffffffffffffffffffffffffffffffffffffffff1663b4b333c660e01b853386600067ffffffffffffffff81118015611ef457600080fd5b506040519080825280601f01601f191660200182016040528015611f275781602001600182028036833780820191505090505b50604051602401808573ffffffffffffffffffffffffffffffffffffffff1681526020018473ffffffffffffffffffffffffffffffffffffffff1681526020018373ffffffffffffffffffffffffffffffffffffffff16815260200180602001828103825283818151815260200191508051906020019080838360005b83811015611fbf578082015181840152602081019050611fa4565b50505050905090810190601f168015611fec5780820380516001836020036101000a031916815260200191505b5095505050505050604051602081830303815290604052907bffffffffffffffffffffffffffffffffffffffffffffffffffffffff19166020820180517bffffffffffffffffffffffffffffffffffffffffffffffffffffffff83818316178352505050506040518363ffffffff1660e01b8152600401808373ffffffffffffffffffffffffffffffffffffffff1681526020018060200180602001838103835284818151815260200191508051906020019080838360005b838110156120c05780820151818401526020810190506120a5565b50505050905090810190601f1680156120ed5780820380516001836020036101000a031916815260200191505b50838103825260028152602001807f3078000000000000000000000000000000000000000000000000000000000000815250602001945050505050600060405180830381600087803b15801561214257600080fd5b505af1158015612156573d6000803e3d6000fd5b505050506040513d6000823e3d601f19601f82011682018060405250602081101561218057600080fd5b81019080805160405193929190846401000000008211156121a057600080fd5b838201915060208201858111156121b657600080fd5b82518660018202830111640100000000821117156121d357600080fd5b8083526020830192505050908051906020019080838360005b838110156122075780820151818401526020810190506121ec565b50505050905090810190601f1680156122345780820380516001836020036101000a031916815260200191505b50604052505050506122446127e8565b5050565b60608060008060066007600854600a60009054906101000a9004600b0b838054806020026020016040519081016040528092919081815260200182805480156122b057602002820191906000526020600020905b81548152602001906001019080831161229c575b505050505093508280548060200260200160405190810160405280929190818152602001828054801561230257602002820191906000526020600020905b8154815260200190600101908083116122ee575b50505050509250935093509350935090919293565b601060009054906101000a900473ffffffffffffffffffffffffffffffffffffffff1673ffffffffffffffffffffffffffffffffffffffff166323b872dd600260009054906101000a900473ffffffffffffffffffffffffffffffffffffffff16306009546040518463ffffffff1660e01b8152600401808473ffffffffffffffffffffffffffffffffffffffff1681526020018373ffffffffffffffffffffffffffffffffffffffff1681526020018281526020019350505050602060405180830381600087803b1580156123ec57600080fd5b505af1158015612400573d6000803e3d6000fd5b505050506040513d602081101561241657600080fd5b810190808051906020019092919050505050565b601360009054906101000a900473ffffffffffffffffffffffffffffffffffffffff1673ffffffffffffffffffffffffffffffffffffffff166339255d5b601260009054906101000a900473ffffffffffffffffffffffffffffffffffffffff166362fc305e60e01b868686600067ffffffffffffffff811180156124ae57600080fd5b506040519080825280601f01601f1916602001820160405280156124e15781602001600182028036833780820191505090505b50604051602401808573ffffffffffffffffffffffffffffffffffffffff1681526020018473ffffffffffffffffffffffffffffffffffffffff16815260200183600b0b815260200180602001828103825283818151815260200191508051906020019080838360005b8381101561256657808201518184015260208101905061254b565b50505050905090810190601f1680156125935780820380516001836020036101000a031916815260200191505b5095505050505050604051602081830303815290604052907bffffffffffffffffffffffffffffffffffffffffffffffffffffffff19166020820180517bffffffffffffffffffffffffffffffffffffffffffffffffffffffff83818316178352505050506040518363ffffffff1660e01b8152600401808373ffffffffffffffffffffffffffffffffffffffff1681526020018060200180602001838103835284818151815260200191508051906020019080838360005b8381101561266757808201518184015260208101905061264c565b50505050905090810190601f1680156126945780820380516001836020036101000a031916815260200191505b50838103825260028152602001807f3078000000000000000000000000000000000000000000000000000000000000815250602001945050505050600060405180830381600087803b1580156126e957600080fd5b505af11580156126fd573d6000803e3d6000fd5b505050506040513d6000823e3d601f19601f82011682018060405250602081101561272757600080fd5b810190808051604051939291908464010000000082111561274757600080fd5b8382019150602082018581111561275d57600080fd5b825186600182028301116401000000008211171561277a57600080fd5b8083526020830192505050908051906020019080838360005b838110156127ae578082015181840152602081019050612793565b50505050905090810190601f1680156127db5780820380516001836020036101000a031916815260200191505b5060405250505050505050565b60011515600060019054906101000a900460ff1615151415612a0d57601060009054906101000a900473ffffffffffffffffffffffffffffffffffffffff1673ffffffffffffffffffffffffffffffffffffffff1663095ea7b3600460009054906101000a900473ffffffffffffffffffffffffffffffffffffffff166009546040518363ffffffff1660e01b8152600401808373ffffffffffffffffffffffffffffffffffffffff16815260200182815260200192505050602060405180830381600087803b1580156128bb57600080fd5b505af11580156128cf573d6000803e3d6000fd5b505050506040513d60208110156128e557600080fd5b810190808051906020019092919050505050601060009054906101000a900473ffffffffffffffffffffffffffffffffffffffff1673ffffffffffffffffffffffffffffffffffffffff166323b872dd30600460009054906101000a900473ffffffffffffffffffffffffffffffffffffffff166009546040518463ffffffff1660e01b8152600401808473ffffffffffffffffffffffffffffffffffffffff1681526020018373ffffffffffffffffffffffffffffffffffffffff1681526020018281526020019350505050602060405180830381600087803b1580156129cc57600080fd5b505af11580156129e0573d6000803e3d6000fd5b505050506040513d60208110156129f657600080fd5b810190808051906020019092919050505050612c12565b601060009054906101000a900473ffffffffffffffffffffffffffffffffffffffff1673ffffffffffffffffffffffffffffffffffffffff1663095ea7b3600260009054906101000a900473ffffffffffffffffffffffffffffffffffffffff166009546040518363ffffffff1660e01b8152600401808373ffffffffffffffffffffffffffffffffffffffff16815260200182815260200192505050602060405180830381600087803b158015612ac457600080fd5b505af1158015612ad8573d6000803e3d6000fd5b505050506040513d6020811015612aee57600080fd5b810190808051906020019092919050505050601060009054906101000a900473ffffffffffffffffffffffffffffffffffffffff1673ffffffffffffffffffffffffffffffffffffffff166323b872dd30600260009054906101000a900473ffffffffffffffffffffffffffffffffffffffff166009546040518463ffffffff1660e01b8152600401808473ffffffffffffffffffffffffffffffffffffffff1681526020018373ffffffffffffffffffffffffffffffffffffffff1681526020018281526020019350505050602060405180830381600087803b158015612bd557600080fd5b505af1158015612be9573d6000803e3d6000fd5b505050506040513d6020811015612bff57600080fd5b8101908080519060200190929190505050505b565b828054828255906000526020600020908101928215612c50579160200282015b82811115612c4f578235825591602001919060010190612c34565b5b509050612c5d9190612c61565b5090565b5b80821115612c7a576000816000905550600101612c62565b509056fe4f6e6c792070726f6a656374206f776e65722063616e20617070726f7665207465726d73616e6f746865722070726f706f73616c2068617320616c7265616479206265656e2061636365707465646f6e6c792077696e6e696e6720626964646572206f72206f776e65722063616e2072656465656d20636f6e646974696f6e616c20746f6b656e734f6e6c792070726f6a656374206f776e65722063616e207365652070726f706f736564207465726d73206966206e6f7420617070726f76656420796574a26469706673582212208d5bbca3c546cd043a6f57d6b4e07aef4f2f0520e2f694a56f2e59b8feb1160064736f6c63430007000033a26469706673582212205bdb2b39b39d44b342b8be1e2d1a14c86c491a7a5a2482041cef6399ff08b0c764736f6c63430007000033",
  "linkReferences": {},
  "deployedLinkReferences": {}
}