{
  "_format": "hh-sol-artifact-1",
  "contractName": "BidTrackerFactory",
  "sourceName": "contracts/BidTrackerFactory.sol",
  "abi": [
    {
      "anonymous": false,
      "inputs": [
        {
          "indexed": false,
          "internalType": "string",
          "name": "name",
          "type": "string"
        },
        {
          "indexed": false,
          "internalType": "address",
          "name": "owner",
          "type": "address"
        },
        {
          "indexed": false,
          "internalType": "address",
          "name": "project",
          "type": "address"
        },
        {
          "indexed": false,
          "internalType": "uint256[]",
          "name": "speedtargets",
          "type": "uint256[]"
        },
        {
          "indexed": false,
          "internalType": "uint256[]",
          "name": "targetbounties",
          "type": "uint256[]"
        }
      ],
      "name": "NewProject",
      "type": "event"
    },
    {
      "inputs": [
        {
          "internalType": "address",
          "name": "_owner",
          "type": "address"
        },
        {
          "internalType": "address",
          "name": "_ConditionalTokens",
          "type": "address"
        },
        {
          "internalType": "address",
          "name": "_Sablier",
          "type": "address"
        },
        {
          "internalType": "string",
          "name": "_name",
          "type": "string"
        },
        {
          "internalType": "uint256[]",
          "name": "_speedtargets",
          "type": "uint256[]"
        },
        {
          "internalType": "uint256[]",
          "name": "_bounties",
          "type": "uint256[]"
        }
      ],
      "name": "deployNewProject",
      "outputs": [
        {
          "internalType": "address",
          "name": "",
          "type": "address"
        }
      ],
      "stateMutability": "nonpayable",
      "type": "function"
    },
    {
      "inputs": [
        {
          "internalType": "string",
          "name": "_name",
          "type": "string"
        }
      ],
      "name": "getProject",
      "outputs": [
        {
          "internalType": "address",
          "name": "projectAddress",
          "type": "address"
        },
        {
          "internalType": "string",
          "name": "name",
          "type": "string"
        }
      ],
      "stateMutability": "view",
      "type": "function"
    },
    {
      "inputs": [
        {
          "internalType": "string",
          "name": "",
          "type": "string"
        }
      ],
      "name": "nameToProjectIndex",
      "outputs": [
        {
          "internalType": "uint256",
          "name": "",
          "type": "uint256"
        }
      ],
      "stateMutability": "view",
      "type": "function"
    },
    {
      "inputs": [],
      "name": "nonce",
      "outputs": [
        {
          "internalType": "uint256",
          "name": "_value",
          "type": "uint256"
        }
      ],
      "stateMutability": "view",
      "type": "function"
    },
    {
      "inputs": [
        {
          "internalType": "uint256",
          "name": "",
          "type": "uint256"
        }
      ],
      "name": "projects",
      "outputs": [
        {
          "internalType": "contract BidTracker",
          "name": "",
          "type": "address"
        }
      ],
      "stateMutability": "view",
      "type": "function"
    }
  ],
  "bytecode": "0x608060405234801561001057600080fd5b50612dc4806100206000396000f3fe60806040523480156200001157600080fd5b50600436106200005e5760003560e01c8063107046bd1462000063578063408331e014620000d45780634fa691e21462000363578063affed0e014620004d3578063fafccbcc14620004f3575b600080fd5b62000092600480360360208110156200007b57600080fd5b8101908080359060200190929190505050620005c8565b604051808273ffffffffffffffffffffffffffffffffffffffff1673ffffffffffffffffffffffffffffffffffffffff16815260200191505060405180910390f35b62000321600480360360c0811015620000ec57600080fd5b81019080803573ffffffffffffffffffffffffffffffffffffffff169060200190929190803573ffffffffffffffffffffffffffffffffffffffff169060200190929190803573ffffffffffffffffffffffffffffffffffffffff169060200190929190803590602001906401000000008111156200016a57600080fd5b8201836020820111156200017d57600080fd5b80359060200191846001830284011164010000000083111715620001a057600080fd5b91908080601f016020809104026020016040519081016040528093929190818152602001838380828437600081840152601f19601f820116905080830192505050505050509192919290803590602001906401000000008111156200020457600080fd5b8201836020820111156200021757600080fd5b803590602001918460208302840111640100000000831117156200023a57600080fd5b919080806020026020016040519081016040528093929190818152602001838360200280828437600081840152601f19601f820116905080830192505050505050509192919290803590602001906401000000008111156200029b57600080fd5b820183602082011115620002ae57600080fd5b80359060200191846020830284011164010000000083111715620002d157600080fd5b919080806020026020016040519081016040528093929190818152602001838360200280828437600081840152601f19601f82011690508083019250505050505050919291929050505062000605565b604051808273ffffffffffffffffffffffffffffffffffffffff1673ffffffffffffffffffffffffffffffffffffffff16815260200191505060405180910390f35b62000422600480360360208110156200037b57600080fd5b81019080803590602001906401000000008111156200039957600080fd5b820183602082011115620003ac57600080fd5b80359060200191846001830284011164010000000083111715620003cf57600080fd5b91908080601f016020809104026020016040519081016040528093929190818152602001838380828437600081840152601f19601f82011690508083019250505050505050919291929050505062000b52565b604051808373ffffffffffffffffffffffffffffffffffffffff1673ffffffffffffffffffffffffffffffffffffffff16815260200180602001828103825283818151815260200191508051906020019080838360005b838110156200049657808201518184015260208101905062000479565b50505050905090810190601f168015620004c45780820380516001836020036101000a031916815260200191505b50935050505060405180910390f35b620004dd62000d53565b6040518082815260200191505060405180910390f35b620005b2600480360360208110156200050b57600080fd5b81019080803590602001906401000000008111156200052957600080fd5b8201836020820111156200053c57600080fd5b803590602001918460018302840111640100000000831117156200055f57600080fd5b91908080601f016020809104026020016040519081016040528093929190818152602001838380828437600081840152601f19601f82011690508083019250505050505050919291929050505062000d5f565b6040518082815260200191505060405180910390f35b60028181548110620005d657fe5b906000526020600020016000915054906101000a900473ffffffffffffffffffffffffffffffffffffffff1681565b6000806001856040518082805190602001908083835b602083106200064057805182526020820191506020810190506020830392506200061b565b6001836020036101000a03801982511681845116808217855250505050505090500191505090815260200160405180910390205414620006e8576040517f08c379a000000000000000000000000000000000000000000000000000000000815260040180806020018281038252601b8152602001807f4e616d652068617320616c7265616479206265656e2074616b656e000000000081525060200191505060405180910390fd5b6000878787878787604051620006fe9062000db1565b808773ffffffffffffffffffffffffffffffffffffffff1673ffffffffffffffffffffffffffffffffffffffff1681526020018673ffffffffffffffffffffffffffffffffffffffff1673ffffffffffffffffffffffffffffffffffffffff1681526020018573ffffffffffffffffffffffffffffffffffffffff1673ffffffffffffffffffffffffffffffffffffffff168152602001806020018060200180602001848103845287818151815260200191508051906020019080838360005b83811015620007db578082015181840152602081019050620007be565b50505050905090810190601f168015620008095780820380516001836020036101000a031916815260200191505b50848103835286818151815260200191508051906020019060200280838360005b83811015620008475780820151818401526020810190506200082a565b50505050905001848103825285818151815260200191508051906020019060200280838360005b838110156200088b5780820151818401526020810190506200086e565b505050509050019950505050505050505050604051809103906000f080158015620008ba573d6000803e3d6000fd5b5090506002819080600181540180825580915050600190039060005260206000200160009091909190916101000a81548173ffffffffffffffffffffffffffffffffffffffff021916908373ffffffffffffffffffffffffffffffffffffffff1602179055506200092c600062000d8d565b62000938600062000da3565b6001866040518082805190602001908083835b602083106200097057805182526020820191506020810190506020830392506200094b565b6001836020036101000a0380198251168184511680821785525050505050509050019150509081526020016040518091039020819055507f7859ef7e0a63f1cf1378bda6f66f935b715d3baf360a972ca49597094a7e75c5858983878760405180806020018673ffffffffffffffffffffffffffffffffffffffff1673ffffffffffffffffffffffffffffffffffffffff1681526020018573ffffffffffffffffffffffffffffffffffffffff1673ffffffffffffffffffffffffffffffffffffffff1681526020018060200180602001848103845289818151815260200191508051906020019080838360005b8381101562000a7b57808201518184015260208101905062000a5e565b50505050905090810190601f16801562000aa95780820380516001836020036101000a031916815260200191505b50848103835286818151815260200191508051906020019060200280838360005b8381101562000ae757808201518184015260208101905062000aca565b50505050905001848103825285818151815260200191508051906020019060200280838360005b8381101562000b2b57808201518184015260208101905062000b0e565b505050509050019850505050505050505060405180910390a1809150509695505050505050565b6000606060006002600180866040518082805190602001908083835b6020831062000b93578051825260208201915060208101905060208303925062000b6e565b6001836020036101000a038019825116818451168082178552505050505050905001915050908152602001604051809103902054038154811062000bd357fe5b9060005260206000200160009054906101000a900473ffffffffffffffffffffffffffffffffffffffff169050808173ffffffffffffffffffffffffffffffffffffffff16639a33e3006040518163ffffffff1660e01b815260040160006040518083038186803b15801562000c4857600080fd5b505afa15801562000c5d573d6000803e3d6000fd5b505050506040513d6000823e3d601f19601f82011682018060405250602081101562000c8857600080fd5b810190808051604051939291908464010000000082111562000ca957600080fd5b8382019150602082018581111562000cc057600080fd5b825186600182028301116401000000008211171562000cde57600080fd5b8083526020830192505050908051906020019080838360005b8381101562000d1457808201518184015260208101905062000cf7565b50505050905090810190601f16801562000d425780820380516001836020036101000a031916815260200191505b506040525050509250925050915091565b60008060000154905081565b6001818051602081018201805184825260208301602085012081835280955050505050506000915090505481565b6001816000016000828254019250508190555050565b600081600001549050919050565b611fcf8062000dc08339019056fe608060405260008060006101000a81548160ff0219169083151502179055503480156200002b57600080fd5b5060405162001fcf38038062001fcf833981810160405260c08110156200005157600080fd5b81019080805190602001909291908051906020019092919080519060200190929190805160405193929190846401000000008211156200009057600080fd5b83820191506020820185811115620000a757600080fd5b8251866001820283011164010000000082111715620000c557600080fd5b8083526020830192505050908051906020019080838360005b83811015620000fb578082015181840152602081019050620000de565b50505050905090810190601f168015620001295780820380516001836020036101000a031916815260200191505b50604052602001805160405193929190846401000000008211156200014d57600080fd5b838201915060208201858111156200016457600080fd5b82518660208202830111640100000000821117156200018257600080fd5b8083526020830192505050908051906020019060200280838360005b83811015620001bb5780820151818401526020810190506200019e565b5050505090500160405260200180516040519392919084640100000000821115620001e557600080fd5b83820191506020820185811115620001fc57600080fd5b82518660208202830111640100000000821117156200021a57600080fd5b8083526020830192505050908051906020019060200280838360005b838110156200025357808201518184015260208101905062000236565b5050505090500160405250505085600260006101000a81548173ffffffffffffffffffffffffffffffffffffffff021916908373ffffffffffffffffffffffffffffffffffffffff1602179055508260019080519060200190620002b9929190620003bb565b508160069080519060200190620002d292919062000442565b508060079080519060200190620002eb92919062000442565b5083600a60006101000a81548173ffffffffffffffffffffffffffffffffffffffff021916908373ffffffffffffffffffffffffffffffffffffffff16021790555084600860006101000a81548173ffffffffffffffffffffffffffffffffffffffff021916908373ffffffffffffffffffffffffffffffffffffffff16021790555084600960006101000a81548173ffffffffffffffffffffffffffffffffffffffff021916908373ffffffffffffffffffffffffffffffffffffffff160217905550505050505050620004bc565b828054600181600116156101000203166002900490600052602060002090601f016020900481019282601f10620003fe57805160ff19168380011785556200042f565b828001600101855582156200042f579182015b828111156200042e57825182559160200191906001019062000411565b5b5090506200043e919062000494565b5090565b82805482825590600052602060002090810192821562000481579160200282015b828111156200048057825182559160200191906001019062000463565b5b50905062000490919062000494565b5090565b620004b991905b80821115620004b55760008160009055506001016200049b565b5090565b90565b611b0380620004cc6000396000f3fe6080604052600436106101095760003560e01c80638da5cb5b11610095578063ac5c5e0d11610064578063ac5c5e0d146106a5578063b612b37d146106d4578063c654017214610740578063c7876ea414610804578063ec3d84851461083757610109565b80638da5cb5b146105585780639a33e300146105af578063a290805a1461063f578063a96fcbc61461065657610109565b806360de9b42116100dc57806360de9b421461030b5780636c6eb3b6146103e65780636dd1654b146104355780637510694a146104b05780638890ed091461050157610109565b806309b7d8da1461010e5780630b2dc46c1461019e5780631cb44dfc1461028c5780635352c393146102dd575b600080fd5b34801561011a57600080fd5b5061019c6004803603604081101561013157600080fd5b81019080803590602001909291908035906020019064010000000081111561015857600080fd5b82018360208201111561016a57600080fd5b8035906020019184602083028401116401000000008311171561018c57600080fd5b90919293919293905050506108eb565b005b3480156101aa57600080fd5b506101ed600480360360208110156101c157600080fd5b81019080803573ffffffffffffffffffffffffffffffffffffffff169060200190929190505050610a77565b604051808060200180602001838103835285818151815260200191508051906020019060200280838360005b83811015610234578082015181840152602081019050610219565b50505050905001838103825284818151815260200191508051906020019060200280838360005b8381101561027657808201518184015260208101905061025b565b5050505090500194505050505060405180910390f35b34801561029857600080fd5b506102db600480360360208110156102af57600080fd5b81019080803573ffffffffffffffffffffffffffffffffffffffff169060200190929190505050610c4b565b005b610309600480360360208110156102f357600080fd5b8101908080359060200190929190505050610d52565b005b34801561031757600080fd5b506103e46004803603604081101561032e57600080fd5b810190808035906020019064010000000081111561034b57600080fd5b82018360208201111561035d57600080fd5b8035906020019184602083028401116401000000008311171561037f57600080fd5b9091929391929390803590602001906401000000008111156103a057600080fd5b8201836020820111156103b257600080fd5b803590602001918460208302840111640100000000831117156103d457600080fd5b9091929391929390505050610ff2565b005b3480156103f257600080fd5b5061041f6004803603602081101561040957600080fd5b81019080803590602001909291905050506112f9565b6040518082815260200191505060405180910390f35b34801561044157600080fd5b5061046e6004803603602081101561045857600080fd5b810190808035906020019092919050505061131a565b604051808273ffffffffffffffffffffffffffffffffffffffff1673ffffffffffffffffffffffffffffffffffffffff16815260200191505060405180910390f35b3480156104bc57600080fd5b506104ff600480360360208110156104d357600080fd5b81019080803573ffffffffffffffffffffffffffffffffffffffff169060200190929190505050611356565b005b34801561050d57600080fd5b506105166115e5565b604051808273ffffffffffffffffffffffffffffffffffffffff1673ffffffffffffffffffffffffffffffffffffffff16815260200191505060405180910390f35b34801561056457600080fd5b5061056d61160b565b604051808273ffffffffffffffffffffffffffffffffffffffff1673ffffffffffffffffffffffffffffffffffffffff16815260200191505060405180910390f35b3480156105bb57600080fd5b506105c4611631565b6040518080602001828103825283818151815260200191508051906020019080838360005b838110156106045780820151818401526020810190506105e9565b50505050905090810190601f1680156106315780820380516001836020036101000a031916815260200191505b509250505060405180910390f35b34801561064b57600080fd5b506106546116cf565b005b34801561066257600080fd5b5061068f6004803603602081101561067957600080fd5b81019080803590602001909291905050506116d1565b6040518082815260200191505060405180910390f35b3480156106b157600080fd5b506106ba6116f2565b604051808215151515815260200191505060405180910390f35b3480156106e057600080fd5b506106e9611704565b6040518080602001828103825283818151815260200191508051906020019060200280838360005b8381101561072c578082015181840152602081019050610711565b505050509050019250505060405180910390f35b34801561074c57600080fd5b50610802600480360360a081101561076357600080fd5b81019080803573ffffffffffffffffffffffffffffffffffffffff1690602001909291908035906020019092919080359060200190929190803590602001906401000000008111156107b457600080fd5b8201836020820111156107c657600080fd5b803590602001918460208302840111640100000000831117156107e857600080fd5b909192939192939080359060200190929190505050611792565b005b34801561081057600080fd5b506108196118a2565b604051808261ffff1661ffff16815260200191505060405180910390f35b34801561084357600080fd5b5061084c6118b6565b604051808060200180602001838103835285818151815260200191508051906020019060200280838360005b83811015610893578082015181840152602081019050610878565b50505050905001838103825284818151815260200191508051906020019060200280838360005b838110156108d55780820151818401526020810190506108ba565b5050505090500194505050505060405180910390f35b600260009054906101000a900473ffffffffffffffffffffffffffffffffffffffff1673ffffffffffffffffffffffffffffffffffffffff163373ffffffffffffffffffffffffffffffffffffffff16146109ae576040517f08c379a00000000000000000000000000000000000000000000000000000000081526004018080602001828103825260098152602001807f6e6f74206f776e6572000000000000000000000000000000000000000000000081525060200191505060405180910390fd5b600960009054906101000a900473ffffffffffffffffffffffffffffffffffffffff1673ffffffffffffffffffffffffffffffffffffffff1663c49298ac8484846040518463ffffffff1660e01b815260040180848152602001806020018281038252848482818152602001925060200280828437600081840152601f19601f820116905080830192505050945050505050600060405180830381600087803b158015610a5a57600080fd5b505af1158015610a6e573d6000803e3d6000fd5b50505050505050565b606080600260009054906101000a900473ffffffffffffffffffffffffffffffffffffffff1673ffffffffffffffffffffffffffffffffffffffff163373ffffffffffffffffffffffffffffffffffffffff1614610b20576040517f08c379a0000000000000000000000000000000000000000000000000000000008152600401808060200182810382526029815260200180611aa56029913960400191505060405180910390fd5b600b60008473ffffffffffffffffffffffffffffffffffffffff1673ffffffffffffffffffffffffffffffffffffffff168152602001908152602001600020600c60008573ffffffffffffffffffffffffffffffffffffffff1673ffffffffffffffffffffffffffffffffffffffff16815260200190815260200160002081805480602002602001604051908101604052809291908181526020018280548015610be957602002820191906000526020600020905b815481526020019060010190808311610bd5575b5050505050915080805480602002602001604051908101604052809291908181526020018280548015610c3b57602002820191906000526020600020905b815481526020019060010190808311610c27575b5050505050905091509150915091565b600260009054906101000a900473ffffffffffffffffffffffffffffffffffffffff1673ffffffffffffffffffffffffffffffffffffffff163373ffffffffffffffffffffffffffffffffffffffff1614610d0e576040517f08c379a000000000000000000000000000000000000000000000000000000000815260040180806020018281038252601c8152602001807f4f6e6c79206f776e65722063616e20757064617465206f7261636c650000000081525060200191505060405180910390fd5b80600360006101000a81548173ffffffffffffffffffffffffffffffffffffffff021916908373ffffffffffffffffffffffffffffffffffffffff16021790555050565b600460009054906101000a900473ffffffffffffffffffffffffffffffffffffffff1673ffffffffffffffffffffffffffffffffffffffff163373ffffffffffffffffffffffffffffffffffffffff1614610df8576040517f08c379a0000000000000000000000000000000000000000000000000000000008152600401808060200182810382526029815260200180611a526029913960400191505060405180910390fd5b6000600860009054906101000a900473ffffffffffffffffffffffffffffffffffffffff1673ffffffffffffffffffffffffffffffffffffffff1662fdd58e30846040518363ffffffff1660e01b8152600401808373ffffffffffffffffffffffffffffffffffffffff1673ffffffffffffffffffffffffffffffffffffffff1681526020018281526020019250505060206040518083038186803b158015610ea057600080fd5b505afa158015610eb4573d6000803e3d6000fd5b505050506040513d6020811015610eca57600080fd5b81019080805190602001909291905050509050600860009054906101000a900473ffffffffffffffffffffffffffffffffffffffff1673ffffffffffffffffffffffffffffffffffffffff1663f242432a303385856040518563ffffffff1660e01b8152600401808573ffffffffffffffffffffffffffffffffffffffff1673ffffffffffffffffffffffffffffffffffffffff1681526020018473ffffffffffffffffffffffffffffffffffffffff1673ffffffffffffffffffffffffffffffffffffffff1681526020018381526020018281526020018060200182810382526000815260200160200195505050505050600060405180830381600087803b158015610fd657600080fd5b505af1158015610fea573d6000803e3d6000fd5b505050505050565b600015156000809054906101000a900460ff1615151461105d576040517f08c379a000000000000000000000000000000000000000000000000000000000815260040180806020018281038252602a815260200180611a7b602a913960400191505060405180910390fd5b600260009054906101000a900473ffffffffffffffffffffffffffffffffffffffff1673ffffffffffffffffffffffffffffffffffffffff163373ffffffffffffffffffffffffffffffffffffffff161415611121576040517f08c379a00000000000000000000000000000000000000000000000000000000081526004018080602001828103825260198152602001807f6f776e65722063616e6e6f74206372656174652061206269640000000000000081525060200191505060405180910390fd5b8383600b60003373ffffffffffffffffffffffffffffffffffffffff1673ffffffffffffffffffffffffffffffffffffffff168152602001908152602001600020919061116f929190611969565b508181600c60003373ffffffffffffffffffffffffffffffffffffffff1673ffffffffffffffffffffffffffffffffffffffff16815260200190815260200160002091906111be929190611969565b506005339080600181540180825580915050600190039060005260206000200160009091909190916101000a81548173ffffffffffffffffffffffffffffffffffffffff021916908373ffffffffffffffffffffffffffffffffffffffff1602179055507f65aaf087d1211023c11ff0f91acb8080cc3dba55ae6ee1f621774b8de65821be3385858585604051808673ffffffffffffffffffffffffffffffffffffffff1673ffffffffffffffffffffffffffffffffffffffff16815260200180602001806020018381038352878782818152602001925060200280828437600081840152601f19601f8201169050808301925050508381038252858582818152602001925060200280828437600081840152601f19601f82011690508083019250505097505050505050505060405180910390a150505050565b6007818154811061130657fe5b906000526020600020016000915090505481565b6005818154811061132757fe5b906000526020600020016000915054906101000a900473ffffffffffffffffffffffffffffffffffffffff1681565b600260009054906101000a900473ffffffffffffffffffffffffffffffffffffffff1673ffffffffffffffffffffffffffffffffffffffff163373ffffffffffffffffffffffffffffffffffffffff16146113fc576040517f08c379a0000000000000000000000000000000000000000000000000000000008152600401808060200182810382526024815260200180611a2e6024913960400191505060405180910390fd5b600015156000809054906101000a900460ff16151514611484576040517f08c379a000000000000000000000000000000000000000000000000000000000815260040180806020018281038252601f8152602001807f41206269642068617320616c7265616479206265656e20617070726f7665640081525060200191505060405180910390fd5b60016000806101000a81548160ff02191690831515021790555080600460006101000a81548173ffffffffffffffffffffffffffffffffffffffff021916908373ffffffffffffffffffffffffffffffffffffffff160217905550600c60008273ffffffffffffffffffffffffffffffffffffffff1673ffffffffffffffffffffffffffffffffffffffff168152602001908152602001600020600790805461152e9291906119b6565b50600b60008273ffffffffffffffffffffffffffffffffffffffff1673ffffffffffffffffffffffffffffffffffffffff168152602001908152602001600020600690805461157e9291906119b6565b507f4a670f837e625cd7296ad8672b961c9ee73f3623669b292b96b79d4e9e3ca50881604051808273ffffffffffffffffffffffffffffffffffffffff1673ffffffffffffffffffffffffffffffffffffffff16815260200191505060405180910390a150565b600460009054906101000a900473ffffffffffffffffffffffffffffffffffffffff1681565b600260009054906101000a900473ffffffffffffffffffffffffffffffffffffffff1681565b60018054600181600116156101000203166002900480601f0160208091040260200160405190810160405280929190818152602001828054600181600116156101000203166002900480156116c75780601f1061169c576101008083540402835291602001916116c7565b820191906000526020600020905b8154815290600101906020018083116116aa57829003601f168201915b505050505081565b565b600681815481106116de57fe5b906000526020600020016000915090505481565b6000809054906101000a900460ff1681565b6060600580548060200260200160405190810160405280929190818152602001828054801561178857602002820191906000526020600020905b8160009054906101000a900473ffffffffffffffffffffffffffffffffffffffff1673ffffffffffffffffffffffffffffffffffffffff168152602001906001019080831161173e575b5050505050905090565b600960009054906101000a900473ffffffffffffffffffffffffffffffffffffffff1673ffffffffffffffffffffffffffffffffffffffff166372ce42758787878787876040518763ffffffff1660e01b8152600401808773ffffffffffffffffffffffffffffffffffffffff1673ffffffffffffffffffffffffffffffffffffffff168152602001868152602001858152602001806020018381526020018281038252858582818152602001925060200280828437600081840152601f19601f820116905080830192505050975050505050505050600060405180830381600087803b15801561188257600080fd5b505af1158015611896573d6000803e3d6000fd5b50505050505050505050565b600060019054906101000a900461ffff1681565b606080600660078180548060200260200160405190810160405280929190818152602001828054801561190857602002820191906000526020600020905b8154815260200190600101908083116118f4575b505050505091508080548060200260200160405190810160405280929190818152602001828054801561195a57602002820191906000526020600020905b815481526020019060010190808311611946575b50505050509050915091509091565b8280548282559060005260206000209081019282156119a5579160200282015b828111156119a4578235825591602001919060010190611989565b5b5090506119b29190611a08565b5090565b8280548282559060005260206000209081019282156119f75760005260206000209182015b828111156119f65782548255916001019190600101906119db565b5b509050611a049190611a08565b5090565b611a2a91905b80821115611a26576000816000905550600101611a0e565b5090565b9056fe4f6e6c792070726f6a656374206f776e65722063616e20617070726f7665207465726d736f6e6c79206269646465722063616e2072656465656d20636f6e646974696f6e616c20746f6b656e73616e6f746865722070726f706f73616c2068617320616c7265616479206265656e2061636365707465644f6e6c792070726f6a656374206f776e65722063616e207365652070726f706f736564207465726d73a26469706673582212209f93554fab0c14d6a12425fcee1b3f76be46392f437cedc89922f8e3743aab3b64736f6c63430006070033a26469706673582212201402fe2953e09ecc0105ce40f67b94ee51273c1784cf94205abc3af1606b7d3864736f6c63430006070033",
  "linkReferences": {},
  "deployedLinkReferences": {}
}