{
  "_format": "hh-sol-artifact-1",
  "contractName": "BidTracker",
  "sourceName": "contracts/BidTracker.sol",
  "abi": [
    {
      "inputs": [
        {
          "internalType": "address",
          "name": "_owner",
          "type": "address"
        },
        {
          "internalType": "address",
          "name": "_ConditionalToken",
          "type": "address"
        },
        {
          "internalType": "address",
          "name": "_Superfluid",
          "type": "address"
        },
        {
          "internalType": "address",
          "name": "_ERC20",
          "type": "address"
        },
        {
          "internalType": "string",
          "name": "_name",
          "type": "string"
        },
        {
          "internalType": "uint256[]",
          "name": "_bountySpeedTargets",
          "type": "uint256[]"
        },
        {
          "internalType": "uint256[]",
          "name": "_bounties",
          "type": "uint256[]"
        },
        {
          "internalType": "uint256",
          "name": "_streamSpeedTarget",
          "type": "uint256"
        },
        {
          "internalType": "uint256",
          "name": "_streamAmountTotal",
          "type": "uint256"
        }
      ],
      "stateMutability": "nonpayable",
      "type": "constructor"
    },
    {
      "anonymous": false,
      "inputs": [
        {
          "indexed": false,
          "internalType": "address",
          "name": "approvedBidder",
          "type": "address"
        }
      ],
      "name": "currentTermsApproved",
      "type": "event"
    },
    {
      "anonymous": false,
      "inputs": [
        {
          "indexed": false,
          "internalType": "address",
          "name": "Bidder",
          "type": "address"
        },
        {
          "indexed": false,
          "internalType": "uint256",
          "name": "speedTargetBidder",
          "type": "uint256"
        },
        {
          "indexed": false,
          "internalType": "uint256[]",
          "name": "bountySpeedTargets",
          "type": "uint256[]"
        },
        {
          "indexed": false,
          "internalType": "uint256[]",
          "name": "bounties",
          "type": "uint256[]"
        }
      ],
      "name": "newBidSent",
      "type": "event"
    },
    {
      "inputs": [
        {
          "internalType": "uint256",
          "name": "",
          "type": "uint256"
        }
      ],
      "name": "all_bidders",
      "outputs": [
        {
          "internalType": "address",
          "name": "",
          "type": "address"
        }
      ],
      "stateMutability": "view",
      "type": "function"
    },
    {
      "inputs": [
        {
          "internalType": "address",
          "name": "_bidder",
          "type": "address"
        },
        {
          "internalType": "contract ISuperToken",
          "name": "token",
          "type": "address"
        },
        {
          "internalType": "uint256",
          "name": "endTime",
          "type": "uint256"
        }
      ],
      "name": "approveBidderTerms",
      "outputs": [],
      "stateMutability": "nonpayable",
      "type": "function"
    },
    {
      "inputs": [
        {
          "internalType": "uint256",
          "name": "",
          "type": "uint256"
        }
      ],
      "name": "bountySpeedTargetOwner",
      "outputs": [
        {
          "internalType": "uint256",
          "name": "",
          "type": "uint256"
        }
      ],
      "stateMutability": "view",
      "type": "function"
    },
    {
      "inputs": [
        {
          "internalType": "bytes32",
          "name": "questionID",
          "type": "bytes32"
        },
        {
          "internalType": "uint256[]",
          "name": "outcome",
          "type": "uint256[]"
        }
      ],
      "name": "callReportPayouts",
      "outputs": [],
      "stateMutability": "nonpayable",
      "type": "function"
    },
    {
      "inputs": [
        {
          "internalType": "address",
          "name": "tokenaddress",
          "type": "address"
        },
        {
          "internalType": "bytes32",
          "name": "parent",
          "type": "bytes32"
        },
        {
          "internalType": "bytes32",
          "name": "conditionId",
          "type": "bytes32"
        },
        {
          "internalType": "uint256[]",
          "name": "partition",
          "type": "uint256[]"
        },
        {
          "internalType": "uint256",
          "name": "value",
          "type": "uint256"
        }
      ],
      "name": "callSplitPosition",
      "outputs": [],
      "stateMutability": "nonpayable",
      "type": "function"
    },
    {
      "inputs": [
        {
          "internalType": "uint256",
          "name": "number",
          "type": "uint256"
        }
      ],
      "name": "cast",
      "outputs": [
        {
          "internalType": "int96",
          "name": "",
          "type": "int96"
        }
      ],
      "stateMutability": "pure",
      "type": "function"
    },
    {
      "inputs": [
        {
          "internalType": "contract ISuperToken",
          "name": "token",
          "type": "address"
        },
        {
          "internalType": "address",
          "name": "sender",
          "type": "address"
        },
        {
          "internalType": "address",
          "name": "receiver",
          "type": "address"
        }
      ],
      "name": "endFlow",
      "outputs": [],
      "stateMutability": "nonpayable",
      "type": "function"
    },
    {
      "inputs": [],
      "name": "getAllBidderAddresses",
      "outputs": [
        {
          "internalType": "address[]",
          "name": "",
          "type": "address[]"
        }
      ],
      "stateMutability": "view",
      "type": "function"
    },
    {
      "inputs": [
        {
          "internalType": "address",
          "name": "_bidder",
          "type": "address"
        }
      ],
      "name": "loadBidderTerms",
      "outputs": [
        {
          "internalType": "uint256[]",
          "name": "_bountySpeedtargets",
          "type": "uint256[]"
        },
        {
          "internalType": "uint256[]",
          "name": "_bounties",
          "type": "uint256[]"
        },
        {
          "internalType": "uint256",
          "name": "_streamSpeedTarget",
          "type": "uint256"
        },
        {
          "internalType": "uint256",
          "name": "_streamAmountTotal",
          "type": "uint256"
        }
      ],
      "stateMutability": "view",
      "type": "function"
    },
    {
      "inputs": [],
      "name": "loadOwnerTerms",
      "outputs": [
        {
          "internalType": "uint256[]",
          "name": "_bountySpeedTargets",
          "type": "uint256[]"
        },
        {
          "internalType": "uint256[]",
          "name": "_bounties",
          "type": "uint256[]"
        },
        {
          "internalType": "uint256",
          "name": "_streamSpeedTarget",
          "type": "uint256"
        },
        {
          "internalType": "uint256",
          "name": "_streamAmountTotal",
          "type": "uint256"
        }
      ],
      "stateMutability": "view",
      "type": "function"
    },
    {
      "inputs": [
        {
          "internalType": "uint256[]",
          "name": "_bountySpeedTargets",
          "type": "uint256[]"
        },
        {
          "internalType": "uint256[]",
          "name": "_bounties",
          "type": "uint256[]"
        },
        {
          "internalType": "uint256",
          "name": "_streamSpeedTarget",
          "type": "uint256"
        },
        {
          "internalType": "uint256",
          "name": "_streamAmountTotal",
          "type": "uint256"
        }
      ],
      "name": "newBidderTerms",
      "outputs": [],
      "stateMutability": "nonpayable",
      "type": "function"
    },
    {
      "inputs": [],
      "name": "oracleAddress",
      "outputs": [
        {
          "internalType": "address",
          "name": "",
          "type": "address"
        }
      ],
      "stateMutability": "view",
      "type": "function"
    },
    {
      "inputs": [],
      "name": "owner",
      "outputs": [
        {
          "internalType": "address",
          "name": "",
          "type": "address"
        }
      ],
      "stateMutability": "view",
      "type": "function"
    },
    {
      "inputs": [],
      "name": "ownerApproval",
      "outputs": [
        {
          "internalType": "bool",
          "name": "",
          "type": "bool"
        }
      ],
      "stateMutability": "view",
      "type": "function"
    },
    {
      "inputs": [],
      "name": "projectName",
      "outputs": [
        {
          "internalType": "string",
          "name": "",
          "type": "string"
        }
      ],
      "stateMutability": "view",
      "type": "function"
    },
    {
      "inputs": [
        {
          "internalType": "uint256",
          "name": "_value",
          "type": "uint256"
        }
      ],
      "name": "recieveERC20",
      "outputs": [],
      "stateMutability": "nonpayable",
      "type": "function"
    },
    {
      "inputs": [],
      "name": "speedTargetOwner",
      "outputs": [
        {
          "internalType": "uint256",
          "name": "",
          "type": "uint256"
        }
      ],
      "stateMutability": "view",
      "type": "function"
    },
    {
      "inputs": [],
      "name": "streamAmountOwner",
      "outputs": [
        {
          "internalType": "uint256",
          "name": "",
          "type": "uint256"
        }
      ],
      "stateMutability": "view",
      "type": "function"
    },
    {
      "inputs": [
        {
          "internalType": "uint256",
          "name": "",
          "type": "uint256"
        }
      ],
      "name": "targetBountyOwner",
      "outputs": [
        {
          "internalType": "uint256",
          "name": "",
          "type": "uint256"
        }
      ],
      "stateMutability": "view",
      "type": "function"
    },
    {
      "inputs": [
        {
          "internalType": "uint256",
          "name": "positionId",
          "type": "uint256"
        }
      ],
      "name": "transferCT",
      "outputs": [],
      "stateMutability": "payable",
      "type": "function"
    },
    {
      "inputs": [
        {
          "internalType": "address",
          "name": "newOracleAddress",
          "type": "address"
        }
      ],
      "name": "updateOracle",
      "outputs": [],
      "stateMutability": "nonpayable",
      "type": "function"
    },
    {
      "inputs": [],
      "name": "winningBidder",
      "outputs": [
        {
          "internalType": "address",
          "name": "",
          "type": "address"
        }
      ],
      "stateMutability": "view",
      "type": "function"
    }
  ],
  "bytecode": "0x608060405260008060006101000a81548160ff0219169083151502179055503480156200002b57600080fd5b50604051620030413803806200304183398181016040526101208110156200005257600080fd5b8101908080519060200190929190805190602001909291908051906020019092919080519060200190929190805160405193929190846401000000008211156200009b57600080fd5b83820191506020820185811115620000b257600080fd5b8251866001820283011164010000000082111715620000d057600080fd5b8083526020830192505050908051906020019080838360005b8381101562000106578082015181840152602081019050620000e9565b50505050905090810190601f168015620001345780820380516001836020036101000a031916815260200191505b50604052602001805160405193929190846401000000008211156200015857600080fd5b838201915060208201858111156200016f57600080fd5b82518660208202830111640100000000821117156200018d57600080fd5b8083526020830192505050908051906020019060200280838360005b83811015620001c6578082015181840152602081019050620001a9565b5050505090500160405260200180516040519392919084640100000000821115620001f057600080fd5b838201915060208201858111156200020757600080fd5b82518660208202830111640100000000821117156200022557600080fd5b8083526020830192505050908051906020019060200280838360005b838110156200025e57808201518184015260208101905062000241565b50505050905001604052602001805190602001909291908051906020019092919050505088600260006101000a81548173ffffffffffffffffffffffffffffffffffffffff021916908373ffffffffffffffffffffffffffffffffffffffff1602179055508460019080519060200190620002db9291906200042f565b508360069080519060200190620002f4929190620004b6565b5082600790805190602001906200030d929190620004b6565b50816008819055508060098190555086601260006101000a81548173ffffffffffffffffffffffffffffffffffffffff021916908373ffffffffffffffffffffffffffffffffffffffff16021790555087600f60006101000a81548173ffffffffffffffffffffffffffffffffffffffff021916908373ffffffffffffffffffffffffffffffffffffffff16021790555085601060006101000a81548173ffffffffffffffffffffffffffffffffffffffff021916908373ffffffffffffffffffffffffffffffffffffffff16021790555087601160006101000a81548173ffffffffffffffffffffffffffffffffffffffff021916908373ffffffffffffffffffffffffffffffffffffffff16021790555050505050505050505062000527565b828054600181600116156101000203166002900490600052602060002090601f016020900481019282601f106200047257805160ff1916838001178555620004a3565b82800160010185558215620004a3579182015b82811115620004a257825182559160200191906001019062000485565b5b509050620004b2919062000508565b5090565b828054828255906000526020600020908101928215620004f5579160200282015b82811115620004f4578251825591602001919060010190620004d7565b5b50905062000504919062000508565b5090565b5b808211156200052357600081600090555060010162000509565b5090565b612b0a80620005376000396000f3fe6080604052600436106101355760003560e01c80638da5cb5b116100ab578063c65401721161006f578063c6540172146106ec578063cfa4dfd1146107b0578063d6636804146107db578063ddaf2271146108ca578063e9d2ba7f1461095b578063ec3d8485146109d657610135565b80638da5cb5b146105415780639a33e30014610582578063a89ae4ba14610612578063ac5c5e0d14610653578063b612b37d1461068057610135565b80634325afcc116100fd5780634325afcc146103915780635cbdf0a8146103cc5780636dd1654b1461041b578063738198b4146104805780637a11873b146104d25780638890ed091461050057610135565b806309b7d8da1461013a5780630b2dc46c146101ca5780630ea36180146102c65780631cb44dfc146103155780633167f99314610366575b600080fd5b34801561014657600080fd5b506101c86004803603604081101561015d57600080fd5b81019080803590602001909291908035906020019064010000000081111561018457600080fd5b82018360208201111561019657600080fd5b803590602001918460208302840111640100000000831117156101b857600080fd5b9091929391929390505050610a98565b005b3480156101d657600080fd5b50610219600480360360208110156101ed57600080fd5b81019080803573ffffffffffffffffffffffffffffffffffffffff169060200190929190505050610c24565b604051808060200180602001858152602001848152602001838103835287818151815260200191508051906020019060200280838360005b8381101561026c578082015181840152602081019050610251565b50505050905001838103825286818151815260200191508051906020019060200280838360005b838110156102ae578082015181840152602081019050610293565b50505050905001965050505050505060405180910390f35b3480156102d257600080fd5b506102ff600480360360208110156102e957600080fd5b8101908080359060200190929190505050610e9d565b6040518082815260200191505060405180910390f35b34801561032157600080fd5b506103646004803603602081101561033857600080fd5b81019080803573ffffffffffffffffffffffffffffffffffffffff169060200190929190505050610ebe565b005b34801561037257600080fd5b5061037b610fc5565b6040518082815260200191505060405180910390f35b34801561039d57600080fd5b506103ca600480360360208110156103b457600080fd5b8101908080359060200190929190505050610fcb565b005b3480156103d857600080fd5b50610405600480360360208110156103ef57600080fd5b81019080803590602001909291905050506110dd565b6040518082815260200191505060405180910390f35b34801561042757600080fd5b506104546004803603602081101561043e57600080fd5b81019080803590602001909291905050506110fe565b604051808273ffffffffffffffffffffffffffffffffffffffff16815260200191505060405180910390f35b34801561048c57600080fd5b506104b9600480360360208110156104a357600080fd5b810190808035906020019092919050505061113a565b6040518082600b0b815260200191505060405180910390f35b6104fe600480360360208110156104e857600080fd5b8101908080359060200190929190505050611144565b005b34801561050c57600080fd5b506105156113fa565b604051808273ffffffffffffffffffffffffffffffffffffffff16815260200191505060405180910390f35b34801561054d57600080fd5b50610556611420565b604051808273ffffffffffffffffffffffffffffffffffffffff16815260200191505060405180910390f35b34801561058e57600080fd5b50610597611446565b6040518080602001828103825283818151815260200191508051906020019080838360005b838110156105d75780820151818401526020810190506105bc565b50505050905090810190601f1680156106045780820380516001836020036101000a031916815260200191505b509250505060405180910390f35b34801561061e57600080fd5b506106276114e4565b604051808273ffffffffffffffffffffffffffffffffffffffff16815260200191505060405180910390f35b34801561065f57600080fd5b5061066861150a565b60405180821515815260200191505060405180910390f35b34801561068c57600080fd5b5061069561151b565b6040518080602001828103825283818151815260200191508051906020019060200280838360005b838110156106d85780820151818401526020810190506106bd565b505050509050019250505060405180910390f35b3480156106f857600080fd5b506107ae600480360360a081101561070f57600080fd5b81019080803573ffffffffffffffffffffffffffffffffffffffff16906020019092919080359060200190929190803590602001909291908035906020019064010000000081111561076057600080fd5b82018360208201111561077257600080fd5b8035906020019184602083028401116401000000008311171561079457600080fd5b9091929391929390803590602001909291905050506115a9565b005b3480156107bc57600080fd5b506107c56116a3565b6040518082815260200191505060405180910390f35b3480156107e757600080fd5b506108c8600480360360808110156107fe57600080fd5b810190808035906020019064010000000081111561081b57600080fd5b82018360208201111561082d57600080fd5b8035906020019184602083028401116401000000008311171561084f57600080fd5b90919293919293908035906020019064010000000081111561087057600080fd5b82018360208201111561088257600080fd5b803590602001918460208302840111640100000000831117156108a457600080fd5b909192939192939080359060200190929190803590602001909291905050506116a9565b005b3480156108d657600080fd5b50610959600480360360608110156108ed57600080fd5b81019080803573ffffffffffffffffffffffffffffffffffffffff169060200190929190803573ffffffffffffffffffffffffffffffffffffffff169060200190929190803573ffffffffffffffffffffffffffffffffffffffff169060200190929190505050611967565b005b34801561096757600080fd5b506109d46004803603606081101561097e57600080fd5b81019080803573ffffffffffffffffffffffffffffffffffffffff169060200190929190803573ffffffffffffffffffffffffffffffffffffffff16906020019092919080359060200190929190505050611b6e565b005b3480156109e257600080fd5b506109eb611e91565b604051808060200180602001858152602001848152602001838103835287818151815260200191508051906020019060200280838360005b83811015610a3e578082015181840152602081019050610a23565b50505050905001838103825286818151815260200191508051906020019060200280838360005b83811015610a80578082015181840152602081019050610a65565b50505050905001965050505050505060405180910390f35b600260009054906101000a900473ffffffffffffffffffffffffffffffffffffffff1673ffffffffffffffffffffffffffffffffffffffff163373ffffffffffffffffffffffffffffffffffffffff1614610b5b576040517f08c379a00000000000000000000000000000000000000000000000000000000081526004018080602001828103825260098152602001807f6e6f74206f776e6572000000000000000000000000000000000000000000000081525060200191505060405180910390fd5b601160009054906101000a900473ffffffffffffffffffffffffffffffffffffffff1673ffffffffffffffffffffffffffffffffffffffff1663c49298ac8484846040518463ffffffff1660e01b815260040180848152602001806020018281038252848482818152602001925060200280828437600081840152601f19601f820116905080830192505050945050505050600060405180830381600087803b158015610c0757600080fd5b505af1158015610c1b573d6000803e3d6000fd5b50505050505050565b606080600080600260009054906101000a900473ffffffffffffffffffffffffffffffffffffffff1673ffffffffffffffffffffffffffffffffffffffff163373ffffffffffffffffffffffffffffffffffffffff161480610c9757506001151560008054906101000a900460ff161515145b610cec576040517f08c379a000000000000000000000000000000000000000000000000000000000815260040180806020018281038252603d815260200180612a98603d913960400191505060405180910390fd5b600b60008673ffffffffffffffffffffffffffffffffffffffff1673ffffffffffffffffffffffffffffffffffffffff168152602001908152602001600020600c60008773ffffffffffffffffffffffffffffffffffffffff1673ffffffffffffffffffffffffffffffffffffffff168152602001908152602001600020600d60008873ffffffffffffffffffffffffffffffffffffffff1673ffffffffffffffffffffffffffffffffffffffff16815260200190815260200160002054600e60008973ffffffffffffffffffffffffffffffffffffffff1673ffffffffffffffffffffffffffffffffffffffff1681526020019081526020016000205483805480602002602001604051908101604052809291908181526020018280548015610e3557602002820191906000526020600020905b815481526020019060010190808311610e21575b5050505050935082805480602002602001604051908101604052809291908181526020018280548015610e8757602002820191906000526020600020905b815481526020019060010190808311610e73575b5050505050925093509350935093509193509193565b60078181548110610eaa57fe5b906000526020600020016000915090505481565b600260009054906101000a900473ffffffffffffffffffffffffffffffffffffffff1673ffffffffffffffffffffffffffffffffffffffff163373ffffffffffffffffffffffffffffffffffffffff1614610f81576040517f08c379a000000000000000000000000000000000000000000000000000000000815260040180806020018281038252601c8152602001807f4f6e6c79206f776e65722063616e20757064617465206f7261636c650000000081525060200191505060405180910390fd5b80600360006101000a81548173ffffffffffffffffffffffffffffffffffffffff021916908373ffffffffffffffffffffffffffffffffffffffff16021790555050565b60085481565b601060009054906101000a900473ffffffffffffffffffffffffffffffffffffffff1673ffffffffffffffffffffffffffffffffffffffff166323b872dd600260009054906101000a900473ffffffffffffffffffffffffffffffffffffffff1630846040518463ffffffff1660e01b8152600401808473ffffffffffffffffffffffffffffffffffffffff1681526020018373ffffffffffffffffffffffffffffffffffffffff1681526020018281526020019350505050602060405180830381600087803b15801561109e57600080fd5b505af11580156110b2573d6000803e3d6000fd5b505050506040513d60208110156110c857600080fd5b81019080805190602001909291905050505050565b600681815481106110ea57fe5b906000526020600020016000915090505481565b6005818154811061110b57fe5b906000526020600020016000915054906101000a900473ffffffffffffffffffffffffffffffffffffffff1681565b6000819050919050565b600460009054906101000a900473ffffffffffffffffffffffffffffffffffffffff1673ffffffffffffffffffffffffffffffffffffffff163373ffffffffffffffffffffffffffffffffffffffff1614806111ed5750600260009054906101000a900473ffffffffffffffffffffffffffffffffffffffff1673ffffffffffffffffffffffffffffffffffffffff163373ffffffffffffffffffffffffffffffffffffffff16145b611242576040517f08c379a000000000000000000000000000000000000000000000000000000000815260040180806020018281038252603a815260200180612a5e603a913960400191505060405180910390fd5b6000600f60009054906101000a900473ffffffffffffffffffffffffffffffffffffffff1673ffffffffffffffffffffffffffffffffffffffff1662fdd58e30846040518363ffffffff1660e01b8152600401808373ffffffffffffffffffffffffffffffffffffffff1681526020018281526020019250505060206040518083038186803b1580156112d457600080fd5b505afa1580156112e8573d6000803e3d6000fd5b505050506040513d60208110156112fe57600080fd5b81019080805190602001909291905050509050600f60009054906101000a900473ffffffffffffffffffffffffffffffffffffffff1673ffffffffffffffffffffffffffffffffffffffff1663f242432a303385856040518563ffffffff1660e01b8152600401808573ffffffffffffffffffffffffffffffffffffffff1681526020018473ffffffffffffffffffffffffffffffffffffffff1681526020018381526020018281526020018060200182810382526000815260200160200195505050505050600060405180830381600087803b1580156113de57600080fd5b505af11580156113f2573d6000803e3d6000fd5b505050505050565b600460009054906101000a900473ffffffffffffffffffffffffffffffffffffffff1681565b600260009054906101000a900473ffffffffffffffffffffffffffffffffffffffff1681565b60018054600181600116156101000203166002900480601f0160208091040260200160405190810160405280929190818152602001828054600181600116156101000203166002900480156114dc5780601f106114b1576101008083540402835291602001916114dc565b820191906000526020600020905b8154815290600101906020018083116114bf57829003601f168201915b505050505081565b600360009054906101000a900473ffffffffffffffffffffffffffffffffffffffff1681565b60008054906101000a900460ff1681565b6060600580548060200260200160405190810160405280929190818152602001828054801561159f57602002820191906000526020600020905b8160009054906101000a900473ffffffffffffffffffffffffffffffffffffffff1673ffffffffffffffffffffffffffffffffffffffff1681526020019060010190808311611555575b5050505050905090565b601160009054906101000a900473ffffffffffffffffffffffffffffffffffffffff1673ffffffffffffffffffffffffffffffffffffffff166372ce42758787878787876040518763ffffffff1660e01b8152600401808773ffffffffffffffffffffffffffffffffffffffff168152602001868152602001858152602001806020018381526020018281038252858582818152602001925060200280828437600081840152601f19601f820116905080830192505050975050505050505050600060405180830381600087803b15801561168357600080fd5b505af1158015611697573d6000803e3d6000fd5b50505050505050505050565b60095481565b6000151560008054906101000a900460ff16151514611713576040517f08c379a000000000000000000000000000000000000000000000000000000000815260040180806020018281038252602a815260200180612a34602a913960400191505060405180910390fd5b8585600b60003373ffffffffffffffffffffffffffffffffffffffff1673ffffffffffffffffffffffffffffffffffffffff1681526020019081526020016000209190611761929190612953565b508383600c60003373ffffffffffffffffffffffffffffffffffffffff1673ffffffffffffffffffffffffffffffffffffffff16815260200190815260200160002091906117b0929190612953565b5081600d60003373ffffffffffffffffffffffffffffffffffffffff1673ffffffffffffffffffffffffffffffffffffffff1681526020019081526020016000208190555080600e60003373ffffffffffffffffffffffffffffffffffffffff1673ffffffffffffffffffffffffffffffffffffffff168152602001908152602001600020819055506005339080600181540180825580915050600190039060005260206000200160009091909190916101000a81548173ffffffffffffffffffffffffffffffffffffffff021916908373ffffffffffffffffffffffffffffffffffffffff1602179055507f9f4d404e0668dc617948334383ba5225294475b8aa06ff0ec20bd676612a11c2338388888888604051808773ffffffffffffffffffffffffffffffffffffffff16815260200186815260200180602001806020018381038352878782818152602001925060200280828437600081840152601f19601f8201169050808301925050508381038252858582818152602001925060200280828437600081840152601f19601f8201169050808301925050509850505050505050505060405180910390a1505050505050565b601260009054906101000a900473ffffffffffffffffffffffffffffffffffffffff1673ffffffffffffffffffffffffffffffffffffffff1663b4b333c68484846040518463ffffffff1660e01b8152600401808473ffffffffffffffffffffffffffffffffffffffff1681526020018373ffffffffffffffffffffffffffffffffffffffff1681526020018273ffffffffffffffffffffffffffffffffffffffff16815260200180602001828103825260018152602001807f3000000000000000000000000000000000000000000000000000000000000000815250602001945050505050600060405180830381600087803b158015611a6757600080fd5b505af1158015611a7b573d6000803e3d6000fd5b505050506040513d6000823e3d601f19601f820116820180604052506020811015611aa557600080fd5b8101908080516040519392919084640100000000821115611ac557600080fd5b83820191506020820185811115611adb57600080fd5b8251866001820283011164010000000082111715611af857600080fd5b8083526020830192505050908051906020019080838360005b83811015611b2c578082015181840152602081019050611b11565b50505050905090810190601f168015611b595780820380516001836020036101000a031916815260200191505b5060405250505050611b69611f53565b505050565b600260009054906101000a900473ffffffffffffffffffffffffffffffffffffffff1673ffffffffffffffffffffffffffffffffffffffff163373ffffffffffffffffffffffffffffffffffffffff1614611c14576040517f08c379a0000000000000000000000000000000000000000000000000000000008152600401808060200182810382526024815260200180612a106024913960400191505060405180910390fd5b6000151560008054906101000a900460ff16151514611c9b576040517f08c379a000000000000000000000000000000000000000000000000000000000815260040180806020018281038252601f8152602001807f41206269642068617320616c7265616479206265656e20617070726f7665640081525060200191505060405180910390fd5b60016000806101000a81548160ff02191690831515021790555082600460006101000a81548173ffffffffffffffffffffffffffffffffffffffff021916908373ffffffffffffffffffffffffffffffffffffffff160217905550600c60008473ffffffffffffffffffffffffffffffffffffffff1673ffffffffffffffffffffffffffffffffffffffff1681526020019081526020016000206007908054611d459291906129a0565b50600b60008473ffffffffffffffffffffffffffffffffffffffff1673ffffffffffffffffffffffffffffffffffffffff1681526020019081526020016000206006908054611d959291906129a0565b50600d60008473ffffffffffffffffffffffffffffffffffffffff1673ffffffffffffffffffffffffffffffffffffffff16815260200190815260200160002054600881905550600e60008473ffffffffffffffffffffffffffffffffffffffff1673ffffffffffffffffffffffffffffffffffffffff1681526020019081526020016000205460098190555080600a81905550611e316123b8565b611e3f8284600954846124e4565b7f4a670f837e625cd7296ad8672b961c9ee73f3623669b292b96b79d4e9e3ca50883604051808273ffffffffffffffffffffffffffffffffffffffff16815260200191505060405180910390a1505050565b6060806000806006600760085460095483805480602002602001604051908101604052809291908181526020018280548015611eec57602002820191906000526020600020905b815481526020019060010190808311611ed8575b5050505050935082805480602002602001604051908101604052809291908181526020018280548015611f3e57602002820191906000526020600020905b815481526020019060010190808311611f2a575b50505050509250935093509350935090919293565b600a54421061218b57601060009054906101000a900473ffffffffffffffffffffffffffffffffffffffff1673ffffffffffffffffffffffffffffffffffffffff1663095ea7b3600460009054906101000a900473ffffffffffffffffffffffffffffffffffffffff16611fd3600a6009546126e890919063ffffffff16565b6040518363ffffffff1660e01b8152600401808373ffffffffffffffffffffffffffffffffffffffff16815260200182815260200192505050602060405180830381600087803b15801561202657600080fd5b505af115801561203a573d6000803e3d6000fd5b505050506040513d602081101561205057600080fd5b810190808051906020019092919050505050601060009054906101000a900473ffffffffffffffffffffffffffffffffffffffff1673ffffffffffffffffffffffffffffffffffffffff166323b872dd30600460009054906101000a900473ffffffffffffffffffffffffffffffffffffffff166120da600a6009546126e890919063ffffffff16565b6040518463ffffffff1660e01b8152600401808473ffffffffffffffffffffffffffffffffffffffff1681526020018373ffffffffffffffffffffffffffffffffffffffff1681526020018281526020019350505050602060405180830381600087803b15801561214a57600080fd5b505af115801561215e573d6000803e3d6000fd5b505050506040513d602081101561217457600080fd5b8101908080519060200190929190505050506123b6565b601060009054906101000a900473ffffffffffffffffffffffffffffffffffffffff1673ffffffffffffffffffffffffffffffffffffffff1663095ea7b3600260009054906101000a900473ffffffffffffffffffffffffffffffffffffffff16612202600a6009546126e890919063ffffffff16565b6040518363ffffffff1660e01b8152600401808373ffffffffffffffffffffffffffffffffffffffff16815260200182815260200192505050602060405180830381600087803b15801561225557600080fd5b505af1158015612269573d6000803e3d6000fd5b505050506040513d602081101561227f57600080fd5b810190808051906020019092919050505050601060009054906101000a900473ffffffffffffffffffffffffffffffffffffffff1673ffffffffffffffffffffffffffffffffffffffff166323b872dd30600260009054906101000a900473ffffffffffffffffffffffffffffffffffffffff16612309600a6009546126e890919063ffffffff16565b6040518463ffffffff1660e01b8152600401808473ffffffffffffffffffffffffffffffffffffffff1681526020018373ffffffffffffffffffffffffffffffffffffffff1681526020018281526020019350505050602060405180830381600087803b15801561237957600080fd5b505af115801561238d573d6000803e3d6000fd5b505050506040513d60208110156123a357600080fd5b8101908080519060200190929190505050505b565b60006123d0600a6009546126e890919063ffffffff16565b9050601060009054906101000a900473ffffffffffffffffffffffffffffffffffffffff1673ffffffffffffffffffffffffffffffffffffffff166323b872dd600260009054906101000a900473ffffffffffffffffffffffffffffffffffffffff1630846040518463ffffffff1660e01b8152600401808473ffffffffffffffffffffffffffffffffffffffff1681526020018373ffffffffffffffffffffffffffffffffffffffff1681526020018281526020019350505050602060405180830381600087803b1580156124a557600080fd5b505af11580156124b9573d6000803e3d6000fd5b505050506040513d60208110156124cf57600080fd5b81019080805190602001909291905050505050565b60006124f08383612732565b9050601260009054906101000a900473ffffffffffffffffffffffffffffffffffffffff1673ffffffffffffffffffffffffffffffffffffffff166362fc305e868661253b8561113a565b6040518463ffffffff1660e01b8152600401808473ffffffffffffffffffffffffffffffffffffffff1681526020018373ffffffffffffffffffffffffffffffffffffffff16815260200182600b0b815260200180602001828103825260028152602001807f3078000000000000000000000000000000000000000000000000000000000000815250602001945050505050600060405180830381600087803b1580156125e757600080fd5b505af11580156125fb573d6000803e3d6000fd5b505050506040513d6000823e3d601f19601f82011682018060405250602081101561262557600080fd5b810190808051604051939291908464010000000082111561264557600080fd5b8382019150602082018581111561265b57600080fd5b825186600182028301116401000000008211171561267857600080fd5b8083526020830192505050908051906020019080838360005b838110156126ac578082015181840152602081019050612691565b50505050905090810190601f1680156126d95780820380516001836020036101000a031916815260200191505b50604052505050505050505050565b600061272a83836040518060400160405280601a81526020017f536166654d6174683a206469766973696f6e206279207a65726f000000000000815250612762565b905092915050565b60008061273e83612828565b9050600061275582866126e890919063ffffffff16565b9050809250505092915050565b6000808311829061280e576040517f08c379a00000000000000000000000000000000000000000000000000000000081526004018080602001828103825283818151815260200191508051906020019080838360005b838110156127d35780820151818401526020810190506127b8565b50505050905090810190601f1680156128005780820380516001836020036101000a031916815260200191505b509250505060405180910390fd5b50600083858161281a57fe5b049050809150509392505050565b60008061283e428461284990919063ffffffff16565b905080915050919050565b600061288b83836040518060400160405280601e81526020017f536166654d6174683a207375627472616374696f6e206f766572666c6f770000815250612893565b905092915050565b6000838311158290612940576040517f08c379a00000000000000000000000000000000000000000000000000000000081526004018080602001828103825283818151815260200191508051906020019080838360005b838110156129055780820151818401526020810190506128ea565b50505050905090810190601f1680156129325780820380516001836020036101000a031916815260200191505b509250505060405180910390fd5b5060008385039050809150509392505050565b82805482825590600052602060002090810192821561298f579160200282015b8281111561298e578235825591602001919060010190612973565b5b50905061299c91906129f2565b5090565b8280548282559060005260206000209081019282156129e15760005260206000209182015b828111156129e05782548255916001019190600101906129c5565b5b5090506129ee91906129f2565b5090565b5b80821115612a0b5760008160009055506001016129f3565b509056fe4f6e6c792070726f6a656374206f776e65722063616e20617070726f7665207465726d73616e6f746865722070726f706f73616c2068617320616c7265616479206265656e2061636365707465646f6e6c792077696e6e696e6720626964646572206f72206f776e65722063616e2072656465656d20636f6e646974696f6e616c20746f6b656e734f6e6c792070726f6a656374206f776e65722063616e207365652070726f706f736564207465726d73206966206e6f7420617070726f76656420796574a2646970667358221220e95ee1e92f9f72ae801e7d40f8832f30e650a849e0237e5623564815368b22d764736f6c63430007000033",
  "linkReferences": {},
  "deployedLinkReferences": {}
}